{
  "contractName": "SubscriptionToken",
  "abi": [
    {
      "constant": false,
      "inputs": [
        {
          "name": "_to",
          "type": "address"
        },
        {
          "name": "_tokenId",
          "type": "uint256"
        }
      ],
      "name": "approve",
      "outputs": [],
      "payable": false,
      "stateMutability": "nonpayable",
      "type": "function"
    },
    {
      "constant": true,
      "inputs": [],
      "name": "totalSupply",
      "outputs": [
        {
          "name": "",
          "type": "uint256"
        }
      ],
      "payable": false,
      "stateMutability": "view",
      "type": "function"
    },
    {
      "constant": true,
      "inputs": [
        {
          "name": "_tokenId",
          "type": "uint256"
        }
      ],
      "name": "approvedFor",
      "outputs": [
        {
          "name": "",
          "type": "address"
        }
      ],
      "payable": false,
      "stateMutability": "view",
      "type": "function"
    },
    {
      "constant": true,
      "inputs": [
        {
          "name": "_owner",
          "type": "address"
        }
      ],
      "name": "tokensOf",
      "outputs": [
        {
          "name": "",
          "type": "uint256[]"
        }
      ],
      "payable": false,
      "stateMutability": "view",
      "type": "function"
    },
    {
      "constant": true,
      "inputs": [
        {
          "name": "_tokenId",
          "type": "uint256"
        }
      ],
      "name": "ownerOf",
      "outputs": [
        {
          "name": "",
          "type": "address"
        }
      ],
      "payable": false,
      "stateMutability": "view",
      "type": "function"
    },
    {
      "constant": true,
      "inputs": [
        {
          "name": "_owner",
          "type": "address"
        }
      ],
      "name": "balanceOf",
      "outputs": [
        {
          "name": "",
          "type": "uint256"
        }
      ],
      "payable": false,
      "stateMutability": "view",
      "type": "function"
    },
    {
      "constant": true,
      "inputs": [],
      "name": "owner",
      "outputs": [
        {
          "name": "",
          "type": "address"
        }
      ],
      "payable": false,
      "stateMutability": "view",
      "type": "function"
    },
    {
      "constant": false,
      "inputs": [
        {
          "name": "_to",
          "type": "address"
        },
        {
          "name": "_tokenId",
          "type": "uint256"
        }
      ],
      "name": "transfer",
      "outputs": [],
      "payable": false,
      "stateMutability": "nonpayable",
      "type": "function"
    },
    {
      "constant": true,
      "inputs": [],
      "name": "symbol_",
      "outputs": [
        {
          "name": "",
          "type": "string"
        }
      ],
      "payable": false,
      "stateMutability": "view",
      "type": "function"
    },
    {
      "constant": false,
      "inputs": [
        {
          "name": "_tokenId",
          "type": "uint256"
        }
      ],
      "name": "takeOwnership",
      "outputs": [],
      "payable": false,
      "stateMutability": "nonpayable",
      "type": "function"
    },
    {
      "constant": true,
      "inputs": [],
      "name": "name_",
      "outputs": [
        {
          "name": "",
          "type": "string"
        }
      ],
      "payable": false,
      "stateMutability": "view",
      "type": "function"
    },
    {
      "constant": false,
      "inputs": [
        {
          "name": "newOwner",
          "type": "address"
        }
      ],
      "name": "transferOwnership",
      "outputs": [],
      "payable": false,
      "stateMutability": "nonpayable",
      "type": "function"
    },
    {
      "anonymous": false,
      "inputs": [
        {
          "indexed": true,
          "name": "previousOwner",
          "type": "address"
        },
        {
          "indexed": true,
          "name": "newOwner",
          "type": "address"
        }
      ],
      "name": "OwnershipTransferred",
      "type": "event"
    },
    {
      "anonymous": false,
      "inputs": [
        {
          "indexed": true,
          "name": "_from",
          "type": "address"
        },
        {
          "indexed": true,
          "name": "_to",
          "type": "address"
        },
        {
          "indexed": false,
          "name": "_tokenId",
          "type": "uint256"
        }
      ],
      "name": "Transfer",
      "type": "event"
    },
    {
      "anonymous": false,
      "inputs": [
        {
          "indexed": true,
          "name": "_owner",
          "type": "address"
        },
        {
          "indexed": true,
          "name": "_approved",
          "type": "address"
        },
        {
          "indexed": false,
          "name": "_tokenId",
          "type": "uint256"
        }
      ],
      "name": "Approval",
      "type": "event"
    },
    {
      "constant": false,
      "inputs": [],
      "name": "purchaseSubscription",
      "outputs": [],
      "payable": true,
      "stateMutability": "payable",
      "type": "function"
    },
    {
      "constant": true,
      "inputs": [
        {
          "name": "_owner",
          "type": "address"
        }
      ],
      "name": "hasValidSubscription",
      "outputs": [
        {
          "name": "",
          "type": "bool"
        }
      ],
      "payable": false,
      "stateMutability": "view",
      "type": "function"
    }
  ],
  "bytecode": "0x608060405260058054600160a060020a03191633179055610b63806100256000396000f3006080604052600436106100cf5763ffffffff7c0100000000000000000000000000000000000000000000000000000000600035041663095ea7b381146100d457806318160ddd146100fa5780632a6dd48f146101215780635a3f2672146101555780636352211e146101c657806370a08231146101de57806382a4910a146101ff5780638da5cb5b14610234578063a9059cbb14610249578063af17dea61461026d578063b2e6ceeb146102f7578063db1bed221461030f578063e2b9e18614610317578063f2fde38b1461032c575b600080fd5b3480156100e057600080fd5b506100f8600160a060020a036004351660243561034d565b005b34801561010657600080fd5b5061010f610435565b60408051918252519081900360200190f35b34801561012d57600080fd5b5061013960043561043c565b60408051600160a060020a039092168252519081900360200190f35b34801561016157600080fd5b50610176600160a060020a036004351661045a565b60408051602080825283518183015283519192839290830191858101910280838360005b838110156101b257818101518382015260200161019a565b505050509050019250505060405180910390f35b3480156101d257600080fd5b506101396004356104c6565b3480156101ea57600080fd5b5061010f600160a060020a03600435166104f0565b34801561020b57600080fd5b50610220600160a060020a036004351661050b565b604080519115158252519081900360200190f35b34801561024057600080fd5b5061013961052e565b34801561025557600080fd5b506100f8600160a060020a036004351660243561053d565b34801561027957600080fd5b5061028261056b565b6040805160208082528351818301528351919283929083019185019080838360005b838110156102bc5781810151838201526020016102a4565b50505050905090810190601f1680156102e95780820380516001836020036101000a031916815260200191505b509250505060405180910390f35b34801561030357600080fd5b506100f86004356105a2565b6100f86105cd565b34801561032357600080fd5b506102826105f4565b34801561033857600080fd5b506100f8600160a060020a036004351661062b565b6000813361035a826104c6565b600160a060020a03161461036d57600080fd5b610376836104c6565b9150600160a060020a03848116908316141561039157600080fd5b61039a8361043c565b600160a060020a03161515806103b85750600160a060020a03841615155b1561042f57600083815260026020908152604091829020805473ffffffffffffffffffffffffffffffffffffffff1916600160a060020a03888116918217909255835187815293519093918616927f8c5be1e5ebec7d5bd14f71427d1e84f3dd0314c0f7b2291e5b200ac8c7c3b925928290030190a35b50505050565b6000545b90565b600081815260026020526040902054600160a060020a03165b919050565b600160a060020a0381166000908152600360209081526040918290208054835181840281018401909452808452606093928301828280156104ba57602002820191906000526020600020905b8154815260200190600101908083116104a6575b50505050509050919050565b600081815260016020526040812054600160a060020a03168015156104ea57600080fd5b92915050565b600160a060020a031660009081526003602052604090205490565b60006001610518836104f0565b111561052657506001610455565b506000919050565b600554600160a060020a031681565b8033610548826104c6565b600160a060020a03161461055b57600080fd5b6105663384846106c0565b505050565b60408051808201909152600381527f5355420000000000000000000000000000000000000000000000000000000000602082015281565b6105ac338261078a565b15156105b757600080fd5b6105ca6105c3826104c6565b33836106c0565b50565b3467016345785d8a0000146105e157600080fd5b6105f2336105ed610435565b6107b0565b565b60408051808201909152601181527f537562736372697074696f6e546f6b656e000000000000000000000000000000602082015281565b600554600160a060020a0316331461064257600080fd5b600160a060020a038116151561065757600080fd5b600554604051600160a060020a038084169216907f8be0079c531659141344cd1fd0a4f28419497f9722a3daafe3b4186f6b6457e090600090a36005805473ffffffffffffffffffffffffffffffffffffffff1916600160a060020a0392909216919091179055565b600160a060020a03821615156106d557600080fd5b6106de816104c6565b600160a060020a03838116911614156106f657600080fd5b82600160a060020a0316610709826104c6565b600160a060020a03161461071c57600080fd5b6107268382610814565b61073083826108a4565b61073a8282610a1b565b81600160a060020a031683600160a060020a03167fddf252ad1be2c89b69c2b068fc378daa952ba7f163c4a11628f55a4df523b3ef836040518082815260200191505060405180910390a3505050565b600082600160a060020a031661079f8361043c565b600160a060020a0316149392505050565b600160a060020a03821615156107c557600080fd5b6107cf8282610a1b565b604080518281529051600160a060020a038416916000917fddf252ad1be2c89b69c2b068fc378daa952ba7f163c4a11628f55a4df523b3ef9181900360200190a35050565b81600160a060020a0316610827826104c6565b600160a060020a03161461083a57600080fd5b6000818152600260209081526040808320805473ffffffffffffffffffffffffffffffffffffffff1916905580518481529051600160a060020a038616927f8c5be1e5ebec7d5bd14f71427d1e84f3dd0314c0f7b2291e5b200ac8c7c3b925928290030190a35050565b600080600084600160a060020a03166108bc856104c6565b600160a060020a0316146108cf57600080fd5b60008481526004602052604090205492506108fa60016108ee876104f0565b9063ffffffff610ad216565b600160a060020a03861660009081526003602052604090208054919350908390811061092257fe5b6000918252602080832090910154868352600182526040808420805473ffffffffffffffffffffffffffffffffffffffff19169055600160a060020a038916845260039092529120805491925082918590811061097b57fe5b6000918252602080832090910192909255600160a060020a03871681526003909152604081208054849081106109ad57fe5b6000918252602080832090910192909255600160a060020a03871681526003909152604090208054906109e4906000198301610afa565b50600084815260046020526040808220829055828252812084905554610a1190600163ffffffff610ad216565b6000555050505050565b600081815260016020526040812054600160a060020a031615610a3d57600080fd5b6000828152600160205260409020805473ffffffffffffffffffffffffffffffffffffffff1916600160a060020a038516179055610a7a836104f0565b600160a060020a038416600090815260036020908152604080832080546001818101835591855283852001879055868452600490925282208390559054919250610aca919063ffffffff610ae416565b600055505050565b600082821115610ade57fe5b50900390565b600082820183811015610af357fe5b9392505050565b8154818355818111156105665760008381526020902061056691810190830161043991905b80821115610b335760008155600101610b1f565b50905600a165627a7a72305820d4be655f0d06ffdde984e9a8c437ce798c167c5c150b10eb41c187bec0a7a9770029",
  "source": "pragma solidity ^0.4.17;\n\nimport 'zeppelin-solidity/contracts/token/ERC721/ERC721Token.sol';\nimport 'zeppelin-solidity/contracts/ownership/Ownable.sol';\n\ncontract SubscriptionToken is ERC721Token, Ownable {\n  string public constant name_ = \"SubscriptionToken\";\n  string public constant symbol_ = \"SUB\";\n  uint256 private constant price = 0.1 ether;\n\n  // TODO set token ID correctly\n  // TODO store plan metadata in token\n  function purchaseSubscription() public payable {\n    require(msg.value == price);\n    _mint(msg.sender, totalSupply());\n  }\n\n  function hasValidSubscription(address _owner) public view returns (bool)  {\n    if (balanceOf(_owner) > 1) return true;\n    return false;\n  }\n\n}\n",
  "sourcePath": "/home/akshit/BlockchainWorkspace/ERC721/licensetoken/contracts/SubscriptionToken.sol",
  "compiler": {
    "name": "solc",
    "version": "0.4.24+commit.e67f0147.Emscripten.clang"
  },
  "schemaVersion": "2.0.1",
  "updatedAt": "2018-10-17T09:34:22.160Z"
}